:100000000C944F000C946E000C946E000C946E00D7
:100010000C946E000C946E000C946E000C946E00A8
:100020000C946E000C946E000C946E000C946E0098
:100030000C946E000C9415010C946E000C946E00E0
:100040000C946E000C946E000C946E000C946E0078
:100050000C946E000C946E000C946E000C946E0068
:100060000C946E000C946E000C946E000C946E0058
:100070000C946E000C946E000C946E000C946E0048
:100080000C946E000C946E000C946E005806600682
:10009000680670067806800688069006BA0611245F
:1000A0001FBECFEFD0E4DEBFCDBF12E0A0E0B1E0D5
:1000B000E2E9F6E100E00BBF02C007900D92A63C1A
:1000C000B107D9F723E0A6ECB2E001C01D92A1313F
:1000D000B207E1F70E94CB060C94470B0C9400008A
:1000E000CF93DF9300D01F92CDB7DEB789837B8398
:1000F0006A8389818A3031F48A819B81BC018DE0D9
:100100000E94700080EC90E0FC018081882F90E0DC
:1001100080729927892BB1F386EC90E02981FC014C
:10012000208380E090E00F900F900F90DF91CF91AF
:100130000895CF93DF9300D000D0CDB7DEB76983A9
:100140007A838B839C8389819A81AB81BC818093E4
:100150000E0190930F01A0931001B09311018091B3
:100160000E0190910F01A0911001B09111018093A7
:10017000C7029093C802A093C902B093CA020000BC
:100180000F900F900F900F90DF91CF910895CF9324
:10019000DF93CDB7DEB781E890E02BE0FC01208350
:1001A00088E890E02DE730E0FC01318320838FE682
:1001B00090E022E0FC01208384E890E0FC011182C1
:1001C000108280910E0190910F01A0911001B091C9
:1001D00011018093C7029093C802A093C902B09303
:1001E000CA028FE590E02FE530E0F9012081206818
:1001F000FC0120830000DF91CF910895CF93DF931E
:10020000CDB7DEB781E890E0FC0110820000DF91FD
:10021000CF910895CF93DF93CDB7DEB781E0809380
:10022000C6020000DF91CF9108951F920F920090B7
:100230005F000F92112400905B000F922F933F9369
:100240004F935F936F937F938F939F93AF93BF93DE
:10025000EF93FF93CF93DF93CDB7DEB78091C702C3
:100260009091C802A091C902B091CA020197A10958
:10027000B1098093C7029093C802A093C902B093BA
:10028000CA028091C7029091C802A091C902B091A0
:10029000CA02892B8A2B8B2B91F40E940A01809130
:1002A0000E0190910F01A0911001B0911101809366
:1002B000C7029093C802A093C902B093CA0200007B
:1002C000DF91CF91FF91EF91BF91AF919F918F916E
:1002D0007F916F915F914F913F912F910F9000927D
:1002E0005B000F9000925F000F901F901895CF93C6
:1002F000DF9300D01F92CDB7DEB789836A834B832B
:100300008B81882371F08A81282F30E081E090E092
:1003100002C0880F991F2A95E2F7982F8981892BAF
:100320000EC08A81282F30E081E090E002C0880F63
:10033000991F2A95E2F7982F9095898189230F902C
:100340000F900F90DF91CF910895CF93DF9300D05E
:10035000CDB7DEB789836A838A81282F30E081E0B8
:1003600090E002C0880F991F2A95E2F7982F8981A3
:1003700089230F900F90DF91CF910895CF93DF9352
:10038000CDB7DEB72C970FB6F894DEBF0FBECDBF4A
:100390006D837E838F83988729873A874B875C8715
:1003A0008D819E81AF81B88529853A854B855C8595
:1003B000BC01CD010E94D908DC01CB0189839A835D
:1003C000AB83BC8389819A81AB81BC81892B8A2BC9
:1003D0008B2B29F489859A85AB85BC8511C08985CD
:1003E0009A85AB85BC858D839E83AF83B8878981D1
:1003F0009A81AB81BC8189879A87AB87BC87D0CF34
:10040000BC01CD012C960FB6F894DEBF0FBECDBF58
:10041000DF91CF9108950F931F93CF93DF9300D077
:1004200000D0CDB7DEB769837A838B839C838091BC
:10043000CE029091CF02A091D002B091D1029C0146
:10044000AD0169817A818B819C810E941809882382
:1004500009F477C020E030E0A90169817A818B81BD
:100460009C810E941809882351F481E990E021E9D8
:1004700030E0F90120812870FC01208309C081E966
:1004800090E021E930E0F90120812360FC01208324
:1004900028E539E344E75FE369817A818B819C81B8
:1004A0000E941809882344F488E990E02FEF3FEF79
:1004B000FC013183208334C020E034E244EF56E471
:1004C00069817A818B819C810E943A0A181634F4E2
:1004D00088E990E0FC011182108222C008E910E056
:1004E00020E030E040E053E469817A818B819C8197
:1004F0000E943F0ADC01CB019C01AD0160E074E287
:1005000084EF9AE40E941D09DC01CB01BC01CD01FE
:100510000E948F09DC01CB010197F8019183808350
:1005200084E990E0FC011182108289819A81AB817B
:10053000BC818093CE029093CF02A093D002B0935F
:10054000D10200000F900F900F900F90DF91CF918C
:100550001F910F910895CF93DF93CDB7DEB780E958
:1005600090E020E4FC01208381E990E02BE0FC0195
:10057000208360E070E0CB010E940B020000DF915D
:10058000CF910895CF93DF93CDB7DEB780E990E0A8
:10059000FC01108281E990E0FC0110820000DF91F3
:1005A000CF910895CF93DF9300D0CDB7DEB79A8374
:1005B000898389819A818230910541F08330910548
:1005C00041F0019749F488EC90E008C080E790E0A2
:1005D00005C084E690E002C088EC90E00F900F9098
:1005E000DF91CF910895CF93DF9300D0CDB7DEB7E1
:1005F0009A83898380910F03909110039A83898352
:1006000089819A818130910579F18230910509F4CF
:1006100053C0892B09F08DC08091CD02882F90E0C6
:1006200089549E4FFC018081882F90E0880F991F8C
:10063000880F991F805E9E4FFC0180819181A2816D
:10064000B381BC01CD010E940B028091CD02882FA5
:1006500090E001962091B601222F30E0B9010E946E
:10066000C5088093CD0265C08091CD02882F90E0AF
:10067000865E9D4FFC018081882F90E0880F991F36
:10068000880F991F805E9E4FFC0180819181A2811D
:10069000B381BC01CD010E940B028091CD02882F55
:1006A00090E0019620911902222F30E0B9010E94BA
:1006B000C5088093CD023DC09091CD0280919C02EF
:1006C0009817C0F010920E0310920D031092CD02F5
:1006D0001092100310920F038091B4019091B50114
:1006E0009093B6028093B50260E070E0CB010E9467
:1006F0000B021EC08091CD02882F90E083569D4F43
:10070000FC018081882F90E0880F991F880F991F26
:10071000805E9E4FFC0180819181A281B381BC01EA
:10072000CD010E940B028091CD028F5F8093CD029C
:10073000000089819A810F900F90DF91CF910895E9
:10074000CF93DF9300D000D0CDB7DEB79C838B83EF
:1007500080910D0390910E03029709F454C080918B
:100760000D0390910E03892B59F519821A8209C045
:100770008981880F89838981816089838A818F5FDC
:100780008A83809115019A81981790F382E290E014
:1007900022E230E0F9012081422F47702981222F87
:1007A00030E0220F331F220F331F220F331F242B61
:1007B000FC0120838BE290E02FE1FC01208315C037
:1007C00082E290E022E230E0F9012081422F47707E
:1007D0002091CC02222F30E0220F331F220F331F33
:1007E000220F331F242BFC01208388E290E0FC01C0
:1007F00010828BE290E02091CC022F61FC012083DB
:100800008B819C8164C082E290E022E230E0F901B9
:100810002081422F47702091CC02222F30E0220FFE
:10082000331F220F331F220F331F242BFC01208381
:100830008BE290E02BE230E0F9012081322F3F7112
:100840002091CC02207E232BFC0120838B819C8174
:10085000009719F0019731F008C081E090E09C8387
:100860008B8306C01C821B8203C01C821B8200007B
:100870008B819C81009719F0019751F011C08091F4
:1008800012018093D202809113018093D30208C099
:10089000809114018093D20281E08093D302000002
:1008A00088E290E02091D302FC0120838BE290E06B
:1008B0002BE230E0F9012081322F307E2091D202EC
:1008C00020952F71232BFC0120838B819C810F901D
:1008D0000F900F900F90DF91CF910895CF93DF93FA
:1008E00000D0CDB7DEB79A83898380E290E0FC0127
:1008F0008081809587708093CB0280910D039091C9
:100900000E039A83898389819A818230910509F443
:100910007AC08330910534F4009761F0019709F4AF
:1009200060C0D6C08330910509F4AAC0049709F4C9
:10093000CAC0CEC08091CB02882F90E087709927E3
:10094000029709F0C8C081E090E09A838983809182
:10095000CD02282F30E0C901880F991F880F991FF9
:10096000880F991F821B930B0E94FB0A1092CD02E5
:1009700081E090E09093100380930F038091170221
:10098000909118029093B6028093B50260E070E0F7
:10099000CB010E940B020E94F70A8770907899237E
:1009A00024F40197886F9F6F0196885E9E4FFC012B
:1009B00080818093120180E88093130187E090E0AA
:1009C00090930C0380930B0380911501882F90E086
:1009D0000E94D20290931701809316011092CC02CC
:1009E0007AC08091CB02882F90E087709927029778
:1009F00029F481E090E09A8389836EC082E090E0E0
:100A00009A83898369C08091CB02882F90E0877098
:100A10009927029729F483E090E09A8389835CC048
:100A200080911301813039F5909112018091140168
:100A30008923882301F184E090E09A83898382E00E
:100A400090E09093100380930F0388E090E09093E0
:100A50000C0380930B031092CD0280919A02909127
:100A60009B029093B6028093B50260E070E0CB01E8
:100A70000E940B0231C082E090E09A8389832CC0EF
:100A80008091CB02882F90E087709927029729F4F4
:100A900083E090E09A8389831FC01A8219821092A2
:100AA000CD021092100310920F038091B401909127
:100AB000B5019093B6028093B50260E070E0CB017F
:100AC0000E940B0209C084E090E09A83898304C0ED
:100AD0001A82198201C0000089819A8190930E03C5
:100AE00080930D0389819A810F900F90DF91CF91B0
:100AF0000895CF93DF9300D0CDB7DEB79A83898373
:100B000080E290E0FC018081809587708093CB0229
:100B100089819A818230910509F47EC083309105E4
:100B200034F4009761F0019709F46AC099C08330EA
:100B3000910509F47DC0049709F486C091C08091A5
:100B40000D0390910E03892B39F58091CB028130F2
:100B500079F482E090E09A83898380911501823054
:100B600008F481C0809115018150809315017BC0EC
:100B70008091CB02843009F076C081E090E09A83C6
:100B8000898380911501833008F06DC08091150133
:100B90008F5F8093150167C080910D0390910E03C4
:100BA000029759F58091CB02813089F484E090E07E
:100BB0009A83898380911401813021F080911401FE
:100BC000869502C080911401809314014CC08091DD
:100BD000CB02843009F047C083E090E09A83898398
:100BE00080911401803121F080911401880F02C09E
:100BF000809114018093140136C01A82198233C087
:100C00008091CB02882319F41A8219822DC081E0C9
:100C100090E09A83898328C08091CB02882319F4BD
:100C20001A82198221C082E090E09A8389831CC0D5
:100C30008091CB02882319F41A82198215C083E0AF
:100C400090E09A83898310C08091CB02882319F4A5
:100C50001A82198209C084E090E09A83898304C0D3
:100C60001A82198201C0000089819A810F900F9029
:100C7000DF91CF910895CF93DF9300D0CDB7DEB74A
:100C80009A83898380910B0390910C03CC01A0E09F
:100C9000B0E040E050E028E030E0841B950B2817DE
:100CA000390708F46BC08A5B9F4FFC010C94FB086A
:100CB00081E090E09A83898380E4809313015EC091
:100CC00082E090E09A83898380E28093130156C08A
:100CD00083E090E09A83898380E1809313014EC082
:100CE00084E090E09A83898388E08093130146C072
:100CF00085E090E09A83898384E0809313013EC06D
:100D000086E090E09A83898382E08093130136C065
:100D100087E090E09A83898381E0809313012EC05D
:100D20001A82198280E8809313018091CD02282FC6
:100D300030E0C901880F991F880F991F880F991FEC
:100D4000821B930B0E94FB0A0E94F70A877090781F
:100D5000992324F40197886F9F6F0196885E9E4FB8
:100D6000FC018081809312018091CC028F5F80937F
:100D7000CC0204C088E090E09A83898389819A81BB
:100D800090930C0380930B0389819A810F900F90AD
:100D9000DF91CF9108950F931F93CF93DF93CDB73A
:100DA000DEB760970FB6F894DEBF0FBECDBF81E20D
:100DB00090E028EFFC01208382E290E027E0FC0134
:100DC000208384E290E02FEFFC01208385E290E015
:100DD000FC01108287E290E02FEFFC01208388E283
:100DE00090E0FC0110828AE290E02FEFFC0120836A
:100DF0008BE290E0FC0110828AE0EBEBF2E0DE0196
:100E0000179601900D928A95E1F785E090E09E8318
:100E10008D831092D40281E090E0A0E0B0E0809356
:100E2000D5029093D602A093D702B093D8028091B6
:100E3000D5029091D602A091D702B091D8028093AA
:100E4000D9029093DA02A093DB02B093DC0280EA2D
:100E500093E09093DE028093DD02109210031092D3
:100E60000F038091B4019091B5019093B6028093E5
:100E7000B50280910F03909110038093DF0280915F
:100E8000B5029091B602CC01A0E0B0E08093E00200
:100E90009093E102A093E202B093E3028091E0021A
:100EA0009091E102A091E202B091E3028093E4020A
:100EB0009093E502A093E602B093E70283EF92E0FD
:100EC0009093E9028093E80210920E0310920D03B2
:100ED00080910D0390910E038093EA028AE090E0E6
:100EE000A0E0B0E08093EB029093EC02A093ED02BF
:100EF000B093EE028091EB029091EC02A091ED0292
:100F0000B091EE028093EF029093F002A093F10271
:100F1000B093F2028EE694E09093F4028093F30291
:100F20001092F50285E090E0A0E0B0E08093F60238
:100F30009093F702A093F802B093F9028091F60221
:100F40009091F702A091F802B091F9028093FA0211
:100F50009093FB02A093FC02B093FD0289E795E019
:100F60009093FF028093FE0210920C0310920B03E9
:100F700080910B0390910C038093000388EC90E028
:100F8000A0E0B0E08093010390930203A0930303D9
:100F9000B09304038091010390910203A091030395
:100FA000B09104038093050390930603A093070375
:100FB000B09308038BE396E090930A0380930903B0
:100FC00061E070E080E090E00E9499000E94C7001C
:100FD0000E94AB028091B5029091B602CC01A0E0D4
:100FE000B0E08093E0029093E102A093E202B0931C
:100FF000E3028091160190911701CC01A0E0B0E0CE
:101000008093010390930203A0930303B09304031E
:1010100019821A821B821C82A1C089819A81880F41
:10102000991F9E012F5F3F4F820F931F0696FC0171
:1010300080819181FC01258136814781508589819C
:101040009A81880F991FBE016F5F7F4F860F971F90
:101050000696FC0180819181FC0181819281A381AE
:10106000B481281739074A075B0708F445C089810E
:101070009A81880F991F9E012F5F3F4F820F931F08
:101080000696FC010081118189819A81880F991F40
:101090009E012F5F3F4F820F931F0696FC018081B8
:1010A0009181FC012185328589819A81880F991F60
:1010B000AE014F5F5F4F840F951F0696FC01808144
:1010C0009181FC018081082E000C990BF901099592
:1010D000F801808389819A81880F991F9E012F5F73
:1010E0003F4F820F931F0696FC0180819181FC0186
:1010F000158216821782108689819A81880F991F1E
:101100009E012F5F3F4F820F931F0696FC012081A7
:10111000318189819A81880F991FAE014F5F5F4F9E
:10112000840F951F0696FC0180819181FC018581C9
:101130009681A781B0850196A11DB11DF901858316
:101140009683A783B08789819A81AB81BC81019600
:10115000A11DB11D89839A83AB83BC838D819E8140
:101160009C0140E050E089819A81AB81BC8182176B
:101170009307A407B50708F450CF00008091C6027A
:101180008823E1F31092C60225CF97FB072E16F4B1
:10119000009407D077FD09D00E94040907FC05D010
:1011A0003EF4909581959F4F0895709561957F4F7E
:1011B0000895A1E21A2EAA1BBB1BFD010DC0AA1F98
:1011C000BB1FEE1FFF1FA217B307E407F50720F0B0
:1011D000A21BB30BE40BF50B661F771F881F991F2B
:1011E0001A9469F760957095809590959B01AC0174
:1011F000BD01CF010895EE0FFF1F0024001C0BBEA0
:101200000790F691E02D0994AA1BBB1B51E107C082
:10121000AA1FBB1FA617B70710F0A61BB70B881F86
:10122000991F5A95A9F780959095BC01CD01089515
:101230000E94C50908F481E008950E9431090C94C8
:10124000000A0E94F90958F00E94F20940F029F4BE
:101250005F3F29F00C94E90951110C94340A0C9465
:10126000EF090E94110A68F39923B1F3552391F312
:10127000951B550BBB27AA2762177307840738F005
:101280009F5F5F4F220F331F441FAA1FA9F335D062
:101290000E2E3AF0E0E832D091505040E695001C16
:1012A000CAF72BD0FE2F29D0660F771F881FBB1FD0
:1012B000261737074807AB07B0E809F0BB0B802DAE
:1012C000BF01FF2793585F4F3AF09E3F510578F0DA
:1012D0000C94E9090C94340A5F3FE4F3983ED4F38C
:1012E000869577956795B795F7959F5FC9F7880FAE
:1012F000911D9695879597F90895E1E0660F771F00
:10130000881FBB1F621773078407BA0720F0621B90
:10131000730B840BBA0BEE1F88F7E09508950E94BB
:1013200096096894B1110C94340A08950E94190A20
:1013300088F09F5798F0B92F9927B751B0F0E1F096
:10134000660F771F881F991F1AF0BA95C9F714C046
:10135000B13091F00E94330AB1E008950C94330A41
:10136000672F782F8827B85F39F0B93FCCF386957F
:1013700077956795B395D9F73EF4909580957095DC
:1013800061957F4F8F4F9F4F0895990F0008550F1C
:10139000AA0BE0E8FEEF16161706E807F907C0F0FB
:1013A00012161306E407F50798F0621B730B840B03
:1013B000950B39F40A2661F0232B242B252B21F4DD
:1013C00008950A2609F4A140A6958FEF811D811D7D
:1013D000089597F99F6780E870E060E008959FEFB7
:1013E00080EC089500240A941616170618060906BC
:1013F000089500240A94121613061406050608958B
:10140000092E0394000C11F4882352F0BB0F40F412
:10141000BF2B11F460FF04C06F5F7F4F8F4F9F4F52
:10142000089557FD9058440F551F59F05F3F71F0D4
:101430004795880F97FB991F61F09F3F79F087953B
:101440000895121613061406551FF2CF4695F1DFC4
:1014500008C0161617061806991FF1CF8695710554
:10146000610508940895E894BB2766277727CB0188
:1014700097F908950E94C50908F48FEF08950E9416
:10148000520A0C94000A0E94F20938F00E94F909ED
:1014900020F0952311F00C94E9090C94EF09112424
:1014A0000C94340A0E94110A70F3959FC1F3950FB2
:1014B00050E0551F629FF001729FBB27F00DB11DD8
:1014C000639FAA27F00DB11DAA1F649F6627B00D68
:1014D000A11D661F829F2227B00DA11D621F739F51
:1014E000B00DA11D621F839FA00D611D221F749F5F
:1014F0003327A00D611D231F849F600D211D822FA6
:10150000762F6A2F11249F5750409AF0F1F08823CC
:101510004AF0EE0FFF1FBB1F661F771F881F9150F9
:101520005040A9F79E3F510580F00C94E9090C94B6
:10153000340A5F3FE4F3983ED4F386957795679538
:10154000B795F795E7959F5FC1F7FE2B880F911D23
:101550009695879597F908958F929F92AF92BF9233
:10156000CF92DF92EF92FF92CF93DF93EC016881ED
:1015700079818A819B81611571058105910521F42D
:1015800064E279ED8BE597E02DE133EF41E050E047
:101590000E94060B49015A019B01AC01A7EAB1E484
:1015A0000E94250B6B017C01ACEEB4EFA501940108
:1015B0000E94330BDC01CB018C0D9D1DAE1DBF1DA8
:1015C000B7FF03C00197A109B04888839983AA8314
:1015D000BB839F77DF91CF91FF90EF90DF90CF900B
:1015E000BF90AF909F908F9008950C94AC0A87EBBA
:1015F00092E00C94AC0AA0E0B0E08093B702909324
:10160000B802A093B902B093BA020895052E97FBD1
:101610001EF400940E941D0B57FD07D00E94D908AC
:1016200007FC03D04EF40C941D0B5095409530955B
:1016300021953F4F4F4F5F4F08959095809570953E
:1016400061957F4F8F4F9F4F08950E94380BA59F44
:10165000900DB49F900DA49F800D911D11240895AD
:10166000B7FF0C94250B0E94250B821B930B08954A
:10167000A29FB001B39FC001A39F700D811D1124D3
:10168000911DB29F700D811D1124911D0895F89434
:02169000FFCF8A
:1016920000000002000000007000000000000100D5
:1016A20000000B800401C8000B191E0D131517074B
:1016B20000005C439A19694366E67643CDCC8243C7
:1016C2009A998A439AD99243CD8C9B43CDCCA44319
:1016D2009A99AE430000B9430000C44366A6CF43C3
:1016E2000000DC439A19E94333F3F64333D302444F
:1016F2009A990A4433D3124433931B4433D3244478
:1017020000A02E44000039440000444466A64F4421
:1017120000005C443313694433F3764400E08244AE
:1017220000A08A4400E0924400A09B4400E0A4444C
:1017320000A0AE440000B9440000C44400A0CF445D
:10174200000000004D01600C0007000C0E0F0F0F8F
:101752000F0E0C0A0A0A0C0A050707070707070CEF
:101762000007000C0E0F0F0F0E0F0F11110F0F11AC
:10177200161313131313130C0007000C0E0F0F0F85
:101782000F0E0C0A0A0A0C0A0507070707070708C3
:101792000A0C0C0C0F0E0E0A0A07070C0C0C0C1389
:1017A200111010101010245300800B240B24242439
:1017B2000B2424240B2424240B2424240B2424244B
:1017C2000B240C0C0B0B0C0C0B240B240B242424CD
:1017D2000B2424240B2424240B24090909090606BA
:1017E20006060B0B0B0B0B0B0B240B240B242424D4
:1017F2000B2424240B2424240B2424240B2424240B
:101802000B240C0C0B0B0C0C0B240B240B2424248C
:101812000B2424240B2424240B240C0C0C0C0D0D5F
:101822000D0D0E0E0E0E0F0F0F248500180B240A3D
:10183200092408072402020207062424242424126D
:101842002424242424640001000000EA02DF0200B0
:0618520003F502D40200C0
:00000001FF
